:020000040800F2
:1000000060070020E5010008D11800081716000855
:10001000CD180008FB140008EB1D000800000000CC
:10002000000000000000000000000000511A00085D
:10003000FF1400080000000059190008651B0008A3
:10004000FF010008FF010008FF010008FF01000890
:10005000FF010008FF010008FF010008FF01000880
:10006000FF010008FF010008FF010008FF01000870
:10007000FF010008FF010008FF010008FF01000860
:10008000FF010008FF010008FF010008FF01000850
:10009000FF010008FF010008FF010008FF01000840
:1000A000FF010008FF010008FF010008FF01000830
:1000B000FF010008FF010008FF010008FF01000820
:1000C000FF010008FF010008FF010008FF01000810
:1000D000FF010008C91B0008FF010008FF0100081C
:1000E000FF010008FF010008FF010008FF010008F0
:1000F000FF010008FF010008FF010008FF010008E0
:10010000FF010008FF010008FF010008FF010008CF
:10011000FF010008FF010008FF010008FF010008BF
:10012000FF010008FF010008FF010008FF010008AF
:1001300000F002F800F047F80AA090E8000C8244B2
:100140008344AAF10107DA4501D100F03CF8AFF28F
:10015000090EBAE80F0013F0010F18BFFB1A43F0A5
:1001600001031847E834000008350000103A24BFA6
:1001700078C878C1FAD8520724BF30C830C144BF0C
:1001800004680C607047000000230024002500264E
:10019000103A28BF78C1FBD8520728BF30C148BFEA
:1001A0000B607047662903F03E81002070471FB541
:1001B00000F0A8FA04000020002102F04DF9E060F0
:1001C0001FBD10B510BD00F0B9FB1146FFF7EFFFE2
:1001D00002F012F800F0D7FB03B4FFF7F2FF03BC04
:1001E00001F07AFE0948804709480047FEE7FEE72C
:1001F000FEE7FEE7FEE7FEE7FEE7FEE7FEE7FEE7D7
:1002000004480549054A064B70470000691B000871
:100210003101000860010020600700206003002019
:1002200060030020704700000FB4044910B503AA12
:10023000029800F055FA10BC5DF814FB180000207D
:100240002DE9F0410E460446002020622046E16878
:10025000884730B3252805D0D4E901219047206A8A
:10026000401CF2E7E168204600278847050018D0C7
:10027000A5F14100192802D820354FF40067324615
:10028000294620462760FFF78DFF40B1012804D0A2
:10029000F61D26F007060836D8E7361DD6E72846AD
:1002A000DAE7206ABDE8F081704770477047704711
:1002B00010B500F02BFA006810BD10B5044600F030
:1002C00025FA046010BD70472DE9FF4F0C461E460D
:1002D0004FF0FF378BB0D2E90001DDF860800A9063
:1002E0008A46C1F30A5505B93D46002108464FF03C
:1002F0000000BAF1000F00F4400005DA00EB8000C6
:100300004FF4400101EA50004FEA9059B9F1010F52
:1003100000DDB9460A9850EA4A000ED044F6105063
:10032000A5F2FF3545432F14B8F1000F1ED07542DA
:10033000291E1EDDC9F100021CE0B8F1010F4FF0CB
:10034000000001D0302103E0F24305E02154401CBD
:10035000B042FBDB30460022002121540B99C1F84A
:100360000880C1E900200FB0BDE8F08FBD1B6D1CF7
:10037000DEE74A4600DA694206A800F069FA06ABF1
:1003800093E8070003AB83E8070050460A9900F0A2
:1003900041FB8DE80700A0F500501F38009003983E
:1003A000002D09DD42F21F014A46084403A90390CB
:1003B000684600F0A0FD08E0A0F500504A461F384E
:1003C00003A90390684600F0AAFD8DE80700000429
:1003D000000C03D04FF0FF30410800E01046B8F1A8
:1003E000000F03D00022009215461EE0751E05D4B2
:1003F00000F090F9303262556D1EF9D5B3460122F6
:10040000084302D000227F1C04E02078302801D16C
:1004100000227F1E002A099786D01DE0112D07DAE1
:1004200000F078F9303262556D1C50EA0102F5D1C6
:10043000084302D00098C8B10EE00021681E05E014
:10044000235C625C63542254401E491C8142F7DBEA
:10045000AB46A81B401E0990002004F80B000B9827
:10046000099AC0F80880C0E9002B7CE711264FF0FC
:10047000000859E72DE9F04F88460446D21D22F0C6
:10048000070191B0D1E90001CDE90A0101F0AFFC0B
:1004900002460B98C00F01D02D2007E0206881078D
:1004A00001D52B2002E0202101EAC000032A099097
:1004B00001D0072A05DB03464146204600F088F9B3
:1004C0000BE12078800601D5E06900E00620B8F154
:1004D000650F814606D0B8F1660F18D0B8F1670FE6
:1004E00070D131E00020B9F1110F009001DB112330
:1004F00001E009F101030AAA01A90CA8FFF7E4FE33
:10050000DDE90C70002609F10105834647E0012072
:100510004B4600904FF000470AAA01A90CA8FFF72C
:10052000D3FEDDE90DB00C995D46002610B909F146
:1005300001000D18B9EB050003D4C0F1FF3609F135
:100540000105A5EB09002BE0B9F1010F01DA4FF02D
:1005500001090020B9F1110F0090484601DD112377
:1005600000E003460AAA01A90CA8FFF7ADFEDDE9E9
:100570000C704D4600268346207800070AD4AB4510
:1005800000DA5D4601A8012D04DD411911F8011CB6
:10059000302907D04F4502DA17F1040F04DA0120A1
:1005A00082460FE06D1EEEE7002F02DCED1B3E449D
:1005B00003E0781CA84200DD7D1CB81B00F1010A95
:1005C0004FF000472078000703D4AA4501DB4FF025
:1005D000FF3A0021B7F1004F0DF143088DF84310A9
:1005E00024D002202B23002F01DA7F422D230A2161
:1005F000021EA0F1010000DC5FB197FBF1FC97FB4C
:10060000F1F201FB1C7C17460CF1300C08F801CD0F
:10061000EEE7A8F1010003702188090501D5452105
:1006200000E06521A0F1010800F8011C09980FA95C
:10063000A1EB0807FF1D00B10120411901EBEA7091
:10064000A1693844081A401EA0612078C00602D46F
:100650002046AFF30080099828B1D4E901219047E2
:10066000206A401C20622078C00622D52046AFF3C5
:1006700000801EE0002E04DBB34502DD01A8805D92
:1006800000E03020D4E901219047206A401C20621C
:10069000761CAAF101005FEA000A0AD100F032F8E4
:1006A000C0680168405CD4E901219047206A401C81
:1006B0002062281EA5F10105DCDC07E0D4E9012158
:1006C00018F8010B9047206A401C2062381EA7F1E1
:1006D0000107F3DC2046AFF30080032011B043E6AE
:1006E000074B70B50D467B4400F05FF80446284682
:1006F00000F01CF910B14FF0FF3070BD204670BD06
:10070000F31A0000004870471C01002000487047A1
:10071000FC00002030B5B0F10A024FEA900E71F1F2
:1007200000034EEA817EB0EB0E0061EB91014FEACF
:10073000101E4EEA017E10EB0E0041EB11114FEA44
:10074000102E4EEA016E10EB0E0041EB11214FEA24
:10075000104E4EEA014E10EB0E0041EB11414018D5
:1007600041F100014FEAD00040EA41704FEAD10167
:1007700010EB80054FEA810444EA907444EB0104D5
:100780006D1944EB0404521BA3414FF0000348BF12
:100790000A3200D530BD401C41F1000130BD0000DF
:1007A00001694A1C02610878704700B58FB0CDE935
:1007B00001310021059105497944CDE90310114625
:1007C0006846FFF73DFD0FB000BD0000E5FFFFFFED
:1007D0002DE9F0411F46044603260168072A01F46B
:1007E000006004DB08B116A505E016A503E008B11A
:1007F00015A500E015A521F010002060A069C01E1D
:10080000A0610FB1401EA0612046AFF300804FB140
:10081000D4E9012138469047206A401C2062C01C60
:10082000206206E0206AFAE7D4E9012115F8010BFD
:100830009047761EF8D22046AFF30080BDE8F081E5
:100840004E414E006E616E00494E4600696E660074
:100850002DE9F047814616468AB0334878440DC8E2
:100860008DE80D0030487844801C03AC0DC884E846
:100870000D0041F69B300844372190FBF1F290FBCC
:10088000F1F5A5F1800501FB12041B3C02D5644281
:10089000012000E00020DFF890A080460027FA4405
:1008A000AAF1BE0A0DE0E00709D03246684607EB20
:1008B00047010AEB810100F032FB8DE8070064106C
:1008C0007F1C002CEFD1184F7F44AC3F18E0E807A5
:1008D00014D007EB04100DF1180A90E80E008AE816
:1008E0000E00C068F04201D198190890324606A95E
:1008F00003A800F014FB03AB83E807006D10641C31
:10090000002DE4D132466946B8F1000F03A802D0A9
:1009100000F0F1FA01E000F002FBC9E90001C9F8BA
:1009200008200AB0BDE8F087D42D0000007B00F05D
:100930008000704700487047FC0000207546FFF7B4
:10094000F9FFAE4605006946534620F0070085468C
:1009500018B020B5FFF754FCBDE820404FF000066A
:100960004FF000074FF000084FF0000B21F0070197
:10097000AC46ACE8C009ACE8C009ACE8C009ACE8DA
:10098000C0098D4670470446AFF300802046FFF74C
:1009900023FC00004FF0013C50F8042B51F8043BBD
:1009A0009A4221D1A2EB0C03934313EACC1317D143
:1009B00050F8042B51F8043B9A4215D1A2EB0C03DA
:1009C000934313EACC130BD150F8042B51F8043B9A
:1009D0009A4209D1A2EB0C03934313EACC13DBD068
:1009E0004FF00000704700BFD01A01BAB1FA81F190
:1009F00001F0180122FA01F0CB40C1F12001DBB275
:100A0000C0B2C01A2CFA01F3D11A914311EAC311F2
:100A1000E6D170475FEA400C08BF91F0000F4FEA43
:100A20008C234FEAC12243EA51514FEA1C5018BFB0
:100A300000F5F0404FEA300018BF41F000415FEA96
:100A40006C5C00F02980BCF1FF3F08BF40F08040A3
:100A50007047130C06BF12044FF0100C4FF0000C3F
:100A6000130E04BF12020CF1080C130F04BF120185
:100A70000CF1040C930F04BF92000CF1020CD30F85
:100A800004BF52000CF1010C11464FF00002A0F11E
:100A90001F00A0EB0C00704711F0004F08BF70471B
:100AA00031F000413FF4D5AF0B0C06BF09044FF005
:100AB000100C4FF0000C0B0E04BF09020CF1080CD7
:100AC0000B0F04BF09010CF1040C8B0F04BF89004C
:100AD0000CF1020CCB0F04BF49000CF1010CCCF15E
:100AE0002003A0EB0C0022FA03F302FA0CF241EA15
:100AF000030100F10100704720F07F4C80EA030001
:100B000023F07F47ACEB070303F57C5300F0004074
:100B100003F1FF032DE980494FEA154B09B44FEA71
:100B2000144325EA0B4E24EA03480FF2042606EB91
:100B3000132749083E785FEA320203FB0667C7F5D0
:100B4000000707FB06F64FEA54374FEAD64606F190
:100B5000020607FB066CCCF1005C4FEA1C472CEA4E
:100B6000074C07FB06F40CFB06F504EB15464FEAB1
:100B7000961634BF00204FF000404FEAD13706FBF5
:100B800007FC4FEA1C4C0CFB0BF7D21B03FB0CF7CA
:100B900061EB07010CFB0EF7B0EB074072EB17425D
:100BA0000CFB08F734BFA2EB0742B2EB074261EB44
:100BB00017414FEA0C444FEA910706FB07FC4FEA46
:100BC0001C4C0CFB0BF7B0EBC74072EB573203FB2E
:100BD0000CF734BFA2EBC742B2EBC74261EB57310F
:100BE0000CFB0EF7B0EBC70072EB57720CFB08F76B
:100BF00034BFA2EBC702B2EBC70261EB5771039F90
:100C00004FEA816141EA921104EBCC044FEAD137FB
:100C10004FEA826206FB07FC42EA90124FEA8060CC
:100C20004FEA1C4C0CFB0BF7D21B03FB0CF761EBE0
:100C300007010CFB0EF7B0EB074072EB17420CFB01
:100C400008F734BFA2EB0742B2EB074261EB174152
:100C50004FEA8C554FEA910704EB9C2406FB07FCF6
:100C60004FEA1C4C0CFB0BF7B0EBC74072EB573252
:100C700003FB0CF734BFA2EBC742B2EBC74261EBF8
:100C800057310CFB0EF7B0EBC70072EB57720CFB41
:100C900008F734BFA2EBC702B2EBC70261EB577192
:100CA00015EB4C254FEA816141EA92114FEA8262CD
:100CB0004FEAD13742EA901206FB07FC44F10004E8
:100CC0004FEA80604FEA1C4C0CFB0BF7D21B03FB76
:100CD0000CF761EB07010CFB0EF7B0EB074072EB72
:100CE00017420CFB08F734BFA2EB0742B2EB0742F6
:100CF00061EB174115EB1C154FEA813141EA924136
:100D00004FEA823242EA90424FEA80304FEA0C7654
:100D100044F1000448EA03434EEA0B484FF0000E4A
:100D2000B2EB080C71EB030724BF624639464EEB69
:100D30000E0E4FF0000B0018524149414BEB0B0BCC
:100D4000B2EB080C71EB03077BF1000B24BF62468A
:100D500039464EEB0E0E4FF0000B00185241494140
:100D60004BEB0B0BB2EB080C71EB03077BF1000BA9
:100D700024BF624639464EEB0E0E51EA020718BFF9
:100D800046F0010616EB0E7655F1000254F1000113
:100D900003D5BDE88901BDE80088BDE88901BDE84B
:100DA0000048B619524141EB0101A3F1010370471C
:100DB00080807F7E7D7C7B7A797877767675747398
:100DC000727171706F6E6E6D6C6C6B6A6A69686857
:100DD000676666656464636362616160605F5F5EED
:100DE0005E5D5D5C5C5B5B5A5A5959585857575663
:100DF00056555555545453535252525151505050C8
:100E00004F4F4F4E4E4D4D4D4C4C4C4B4B4B4A4A19
:100E10004A4949494848484747474746464645455D
:100E20004544444444434343434242424241414196
:100E3000002B26D4770021D01CB54FEA370703B426
:100E40004FF010004FF010014FF000000FBCBDE854
:100E500010400BF1010BBBF1010F08BF5FEA170750
:100E600022BF12F1010211F101014FF0004143F1E3
:100E7000000300F0004043EA00007047F9D3570830
:100E8000DAE746EA064613F1400F4FEA16461FDD41
:100E900013F1200FDFBF16430A46002120335B42C7
:100EA000C8D0C3F1200746EA064602FA07F74FEA20
:100EB000164646EA0706C3F1200722FA03F201FAB2
:100EC00007F721FA03F14FF0000342EA0702B1E706
:100ED00046EA020646EA06464FEA164646EA010692
:100EE000BCBF46EA0646360C4FF000034FF0000246
:100EF0004FF000019EE72DE9C048934630B491E8D9
:100F0000380007C831EA400C48BF34EA430C03D527
:100F1000FFF7F2FDFFF78CFFF0BCBDE800882DE97C
:100F2000C048934630B491E8380007C810F0804FAD
:100F300008BF13F0804F03D100F005F8FFF778FFEA
:100F4000F0BCBDE8008820F07F4780EA030023F072
:100F50007F4C07EB0C03A3F57C5300F00040A3F19A
:100F6000FE0392F0000F00F0B38095F0000F00F048
:100F700077802DE901494FEA11404FEA144621EAF2
:100F8000004800FB06FC24EA064708FB06F607FBC0
:100F900008F800FB07F718EB06484CEB164C4FEA35
:100FA000124B18EB07484FEA15464CEB174022EA64
:100FB0000B4E0BFB06FC25EA06470EFB06F607FB6D
:100FC0000EFE0BFB07F71EEB064E4CEB164C4FF0DC
:100FD00000061EEB074E4CEB174B18EB0B0840F1CD
:100FE000000018EB0E0B58EB000840F100008F1AC0
:100FF0004FF000013CBFC943661B14BFB5EB040CA6
:1010000000213CBFC943F61B4FEA17444EEA8E0E3F
:1010100027EA04454FEA1C4704FB07622CEA074C09
:1010200005FB07F70CFB05F604FB0CFC16EB07466B
:1010300042EB174216EB0C4642EB1C421BEB06063A
:1010400058EB0202414146EA9E0601D5BDE80189FE
:10105000B619524141EB0101A3F10103BDE8018939
:101060004FEA14454FEA114724EA054621EA074CA6
:1010700005FB07F406FB07F70CFB06F105FB0CFC70
:1010800011EB074144EB17444FEA124711EB0C41B7
:1010900044EB1C4422EA074C05FB07F206FB07F76A
:1010A0000CFB06F605FB0CFC16EB074642EB174261
:1010B00016EB0C4642EB1C456A1854F1000148BF80
:1010C0007047B619524141EB0101A3F1010370478A
:1010D00095F0000F37D04FEA11424FEA144721EA4A
:1010E000024624EA074C02FB07F106FB07F70CFB5C
:1010F00006F402FB0CFC14EB074441EB17414FEAEA
:10110000154714EB0C4441EB1C4125EA074C02FB4C
:1011100007F506FB07F70CFB06F602FB0CFC16EBCB
:10112000074645EB174516EB0C4645EB1C421219DA
:1011300051F1000148BF7047B619524141EB01011E
:10114000A3F1010370474FEA14454FEA114724EA1F
:10115000054621EA074C05FB07F106FB07F70CFBE8
:1011600006F24FF0000605FB0CFC12EB074241EBC8
:10117000174112EB0C4251EB1C4148BF70479218CB
:1011800041EB0101A3F10103704700002DE9F04F8D
:1011900089B00646894615469A4600200890BAF15D
:1011A000000F06D0BAF1010F32D0BAF1020F2ED1E2
:1011B0005EE0284601F07AFECDE906014946484640
:1011C00001F0F0FF31460190304601F0EBFF009056
:1011D000019901F097FE834601F068FECDE9020116
:1011E00001F08EF8CDE90401DDE9062301F02CFAC7
:1011F000074601F047F90446204601F057FECDE9C5
:10120000060100F06DFE074601F03CF908905FE032
:101210002946284601F0C6FF49460190484601F09C
:10122000C1FF0090019901F06DFE834601F03EFE82
:10123000CDE9020101F064F807468846304601F026
:1012400035FE3A464346CDE9040101F0FDF9CDE90A
:10125000060101F017F90446204601F027FECDE90A
:10126000060100F03DFE074601F00CF908902FE062
:101270002946284601F096FF31460190304601F09C
:1012800091FF0090019901F03DFE834601F00EFEB2
:10129000CDE9020101F034F807468846484601F0DE
:1012A00005FE3A464346CDE9040101F0CDF9CDE90A
:1012B000060101F0E7F80446204601F0F7FDCDE90C
:1012C000060100F00DFE074601F0DCF8089000BFB3
:1012D00000BF0949089801F065FF834601F0E6FD6B
:1012E0000746064A064B01F0AFF9CDE9060101F0C9
:1012F000C9F809B0BDE8F08F000034431F85EB51F9
:10130000B81E094010B500F0B1F9002000F022F835
:10131000E5281DD12921312000F0D8F80A212C2000
:1013200000F0D4F828212D2000F0D0F800212E2044
:1013300000F0CCF800211E2000F0C8F800211F208A
:1013400000F0C4F80021202000F0C0F8002010BDFB
:101350000120FCE770B50446002500F039FAA6200C
:1013600000F002FA00F080FA0546204600F0FCF991
:1013700000F07AFA054600F02BFAA72000F0F4F905
:1013800000F072FA0546002000F0B6F9054600F0BC
:1013900045FA284670BD2DE9FC4105460E46174624
:1013A00000F016FAA62000F0DFF900F05DFA322016
:1013B00000F0DAF900F058FA00F00AFAA72000F07D
:1013C000D3F900F051FA00240EE0052C05D10020DD
:1013D00000F092F90DF8040004E0012000F08CF90F
:1013E0000DF80400601CC4B2062CEEDB00F016FA07
:1013F0009DF800009DF8011000EB012000B228804C
:101400009DF802009DF8031000EB012000B230802F
:101410009DF804009DF8051000EB012000B2388013
:10142000BDE8FC812DE9FE4304460D4616461F46E5
:101430000020206028603060002F45D0804626E0E4
:101440006A4601A902A8FFF7A6FFBDF9080001F04E
:101450007DFE8146216801F055FD2060BDF9040044
:1014600001F074FE8146296801F04CFD2860BDF949
:10147000000001F06BFE8146316801F043FD3060F1
:10148000052000F05FFE08F1010000F0FF08B845FC
:10149000D6DB384601F072FE81464946206801F0ED
:1014A00093FD2060384601F069FE81464946286870
:1014B00001F08AFD2860384601F060FE8146494609
:1014C000306801F081FD3060BDE8FE8370B50546EF
:1014D0000C4600F07DF9A62000F046F900F0C4F9B2
:1014E000284600F041F900F0BFF9204600F03CF931
:1014F00000F0BAF900F092F970BD00BFFEE7704746
:101500002DE9F0410246002500260020002300249A
:10151000002791F803C00CF00F0591F803C00CF000
:10152000100CBCF1000F03D091F802C04CEA050585
:1015300091F800C0BCF1000F31D0146800202BE0FE
:101540004FF0010C0CFA00F3B1F800C00CEA0306EE
:101550009E4220D183004FF00F0C0CFA03F7BC43DE
:1015600005FA03FC4CEA040491F803C0BCF1280F0F
:1015700006D14FF0010C0CFA00FCC2F814C00AE0CE
:1015800091F803C0BCF1480F05D14FF0010C0CFAE3
:1015900000FCC2F810C0401C0828D1D31460B1F878
:1015A00000C0BCF1FF0F34DD546800202EE000F1D4
:1015B000080C4FF0010808FA0CF3B1F800C00CEA6F
:1015C00003069E4221D183004FF00F0C0CFA03F763
:1015D000BC4305FA03FC4CEA040491F803C0BCF1D7
:1015E000280F05D100F1080C08FA0CF8C2F8148095
:1015F00091F803C0BCF1480F07D100F1080C4FF07F
:10160000010808FA0CF8C2F81080401C0828CED354
:101610005460BDE8F08100BFFEE7000010B5002077
:101620000F4908600F48006820F470400D490860B9
:101630000846006840F44050086000200A49C1F89C
:10164000AC01022000F0A4FD012005490860022041
:1016500000F09EFD00200449C1F8A80110BD000063
:10166000A8812142040C0140008021420C4880697D
:1016700040F008000A4988610A48006820F47F4069
:10168000084908600846006840F44C500860054866
:101690000830006840F44060024908310860704733
:1016A00000100240040C014010B500200F490860F2
:1016B0000F48006820F470400D4908600846006833
:1016C00040F44050086001200A49C1F8AC010220F2
:1016D00000F05EFD012005490860022000F058FD81
:1016E00000200449C1F8A80110BD0000A8812142D2
:1016F000040C01400080214270B5054600241748C3
:10170000006820F47040154908600846006840F4FD
:1017100000400860002616E0002011490860022001
:1017200000F036FD01200F49C1F8A8016006040E43
:101730000B487C38006808B1601CC4B2012000F07E
:1017400027FD701CC6B2082EE6DB15B9FFF7ACFF0B
:1017500001E0FFF763FF204670BD0000040C01406C
:10176000A88121420080214270B5044615480068D6
:1017700020F47040134908600846006840F4405067
:101780000860002010490860002517E0E0090E49B4
:10179000091D08606006040E022000F0F9FC01201B
:1017A0000A49C1F8A801022000F0F2FC0020064915
:1017B0000860022000F0ECFC681CC5B2082DE5DBD7
:1017C00070BD0000040C0140A8812142008021422C
:1017D00010B50F48006820F470400D4908600846B5
:1017E000006840F44050086001200A4908600A4936
:1017F000C1F8A801042000F0CBFC002005490860D6
:10180000042000F0C5FC00200349C1F8A80110BD68
:10181000040C0140AC8121420080214210B50F48E8
:10182000006820F470400D4908600846006840F4E4
:101830004050086000200A4908600A49C1F8AC011C
:10184000042000F0A5FC0120054908600549C1F805
:10185000AC01042000F09CFC10BD0000040C014011
:10186000A88121420080214210B50024144800685C
:1018700020F47040124908600846006840F40040B7
:10188000086001200F49086000F082FC01200E4929
:10189000C1F8A80100F07CFC07E0601CC4B2FA2C7F
:1018A00003DDFFF7BBFF012010BD0648803800684C
:1018B0000028F2D10349091F086000BFF4E70000C7
:1018C000040C0140AC8121420080214200BFFEE7B0
:1018D0007047000070B5002100230F22C47804B3C4
:1018E000154C246804F4E064C4F5E064210AC1F1F5
:1018F0000403CA40447804FA03F184781440214375
:1019000009010E4C0678A155047804F01F05012446
:10191000AC4005786D11AD0005F1E025C5F800413A
:1019200009E0047804F01F050124AC40044D06785A
:10193000761145F8264070BD0CED00E000E400E0B3
:1019400080E100E002490143024A11607047000053
:101950000000FA050CED00E07047000029B1064ACE
:1019600092690243044B9A6104E0034A92698243FC
:10197000014B9A61704700000010024030B5002111
:101980000022002400232D4D6D6805F00C0121B1CB
:10199000042905D0082923D105E0294D056022E05E
:1019A000274D05601FE0254D6D6805F47012234D2D
:1019B0006D6805F48034022505EB92421CB9214D77
:1019C000554305600BE01D4D6D6805F400351DB1F4
:1019D0001C4D5543056002E0194D5543056002E07A
:1019E000174D056000BF00BF144D6D6805F0F00194
:1019F0000909154D6B5C0568DD4045600F4D6D684C
:101A000005F4E061090A104D6B5C4568DD408560B6
:101A10000A4D6D6805F46051C90A0B4D6B5C456851
:101A2000DD40C560054D6D6805F44041890B074DEB
:101A30006B5CC568B5FBF3F5056130BD0010024075
:101A400000127A0000093D001E0000202E00002038
:101A5000704710B500F002F810BD00000CB5002072
:101A6000019000903348006840F4803031490860AC
:101A700000BF3048006800F4003000900198401C1E
:101A80000190009818B90198B0F5A06FF1D12948DC
:101A9000006800F4003010B10120009001E0002047
:101AA00000900098012843D12348006840F01000BE
:101AB000214908600846006820F0030008600846D5
:101AC000006840F0020008601A4840681949486000
:101AD0000846406848600846406840F480604860B6
:101AE0000846406820F47C1048600846406840F48E
:101AF000E81048600846006840F08070086000BF49
:101B00000C48006800F000700028F9D009484068CF
:101B100020F00300074948600846406840F0020092
:101B2000486000BF0348406800F00C000828F9D165
:101B30000CBD00000010024000200240042808D123
:101B40004FF0E021096941F004014FF0E0221161FA
:101B500007E04FF0E021096921F004014FF0E02295
:101B6000116170477047000010B51348006840F0DD
:101B700001001149086008464068104908400E49B4
:101B80004860084600680E4908400B49086008464E
:101B9000006820F4802008600846406820F4FE00B9
:101BA00048604FF41F008860FFF753FF4FF000605C
:101BB0000449086010BD0000001002400000FFF85A
:101BC000FFFFF6FE08ED00E010B540F225511D487C
:101BD00000F04AF810B31B4800F002F9C4B21A48EA
:101BE000008800F40040C8B91748008800F480401D
:101BF00060B10A2C03D000201349088020E012486D
:101C0000008840F400401049088019E00D2C06D1EE
:101C10000D48008840F480400B49088010E00A48D5
:101C20000088C0F30D0009490C5407480088401C87
:101C30000549088008460088C72801DD0020088083
:101C400010BD0000003801401C00002034000020BE
:101C500021B1828942F40052828104E082894DF6EA
:101C6000FF731A408281704770B50246002400233A
:101C70000025002040F66A16B14200D100BFC1F332
:101C8000421501F01F03012606FA03F3012D02D1CC
:101C90009689334006E0022D02D1168A334001E0D6
:101CA000968A33400C12012606FA04F41688344052
:101CB00013B10CB1012000E0002070BDF0B5034667
:101CC000002400260025002040F66A17B94200D102
:101CD00000BF1846C1F3421401F01F06012707FA9E
:101CE00006F5012C01D10C3004E0022C01D110309A
:101CF00000E014301AB107682F43076002E007685C
:101D0000AF430760F0BD00002DE9F04786B00546FF
:101D10000E460024A24600BFA1460027B08900B1AC
:101D200000BF2F462C8A4CF6FF700440F088044315
:101D30002C82AC894EF6F3100440B08831890843F8
:101D4000718908430443AC81AC8A4FF6FF400440DC
:101D5000B0890443AC8201A8FFF710FE1F488742F8
:101D600002D1DDF810A001E0DDF80CA0A88900F494
:101D7000004040B10AEBCA0000EB0A10316849008C
:101D8000B0FBF1F807E00AEBCA0000EB0A1031687B
:101D90008900B0FBF1F86420B8FBF0F004012009E1
:101DA000642101FB1089A88900F4004040B1322071
:101DB00000EBC900B0FBF1F000F00700044308E0BD
:101DC000322000EB09106421B0FBF1F000F00F00AD
:101DD00004432C8106B0BDE8F087000000380140C4
:101DE00001468888C0F30800704700BFFEE749003D
:101DF00050EAC12018BF04204A0D18BF40F001006E
:101E000040F2FF72B2EB515F08BF40F002000128C0
:101E100008BF052070472DE9F0414F1E00EBC701B8
:101E20000446D1E9000115461E4637F006020DD0E2
:101E30002A46334600F060FD7F1E04EBC703D3E95A
:101E4000002300F051FB37F00602F1D1022F25D01C
:101E5000042F13D0062F18BFBDE8F0812A46334661
:101E600000F04AFDD4E90A2300F03EFB2A4633463F
:101E700000F042FDD4E9082300F036FB2A46334641
:101E800000F03AFDD4E9062300F02EFB2A46334643
:101E900000F032FDD4E9042300F026FB2A46334645
:101EA00000F02AFDD4E9022300F01EFB2A46334647
:101EB00000F022FDD4E90023BDE8F04100F014BB9E
:101EC000012201F0E4BA0000024A0020110701F0EB
:101ED000DEBA000001FDFFFF014600BF70470000B1
:101EE0002DE9F84F04460D4621F00040009173495A
:101EF000814211DC7249884201DC06D12CB12046B6
:101F00002946BDE8F84FFFF7DBBF6E48002DCCBF78
:101F10006D496E49BDE8F88F6D49814211DD6D490B
:101F20008142D8BF4FF0FF366DDD20462946FFF7CE
:101F30005EFF042808BFFFF7C7FF20462946BDE81B
:101F4000F88F6549654F25F00045814233DD6449CE
:101F5000814219DD002632464FF080432046294653
:101F600000F0C2FA80468A4601222046294601F046
:101F70008EFA00223B4600F0AFFE4246534600F088
:101F800063FB04460D463EE001260022BA463B466E
:101F90002046294600F0A8FA80460F460022534604
:101FA0002046294600F098FE42463B4600F04CFB96
:101FB00004460D4627E04B4981421BDDDFF828A18E
:101FC0000226002253462046294600F095FC0022B6
:101FD0003B4600F089FA80460F46002253462046D1
:101FE000294600F079FE42463B4600F02DFB0446B0
:101FF0000D4608E0032622462B4600203B4900F010
:1020000023FB04460D4622462B461046194600F097
:1020100073FC8B46824602460B4600F06DFC074679
:102020000246334888460B4606217844FFF7F3FE04
:1020300052465B4600F060FC82462E488B463A468C
:10204000434605217844FFF7E6FE3A46434600F052
:1020500053FC02460B46002E504659460CDA00F05F
:1020600043FA22462B4600F047FC01B022462B469D
:10207000BDE8F04F00F03EBD00F036FA22462B4698
:1020800000F03AFC1C4A7A4402EBC603D3E9002371
:1020900000F022FE22462B4600F01EFE174A7A442C
:1020A00002EBC603D3E9002300F024FD009A002AC6
:1020B000B8BF81F00041BDE8F88F00000000104477
:1020C0000000F07F182D4454FB21F93FFB21F9BF9C
:1020D0000000DC3F0000203E0000F33F0000F03F26
:1020E0000000E63F008003400000F83F0000F0BF22
:1020F0005A15000018150000B61400007E140000E8
:1021000010B56FF00400FFF719FD0A4800680A498E
:10211000B0FBF1F0094908700846007800EB400177
:10212000C1EBC0104FF6FF7101EAC00004490880FE
:1021300010BD00000000002000127A0014000020F2
:10214000160000200146114A12884A434FF0E0234E
:102150005A6100229A611A46126942F001021A611C
:1021600000BF4FF0E022106900F001021AB100F444
:102170008032002AF5D04FF0E022126922F00102ED
:102180004FF0E0231A6100229A6170471600002088
:102190000146114A12784A434FF0E0235A61002267
:1021A0009A611A46126942F001021A6100BF4FF0AB
:1021B000E022106900F001021AB100F48032002A16
:1021C000F5D04FF0E022126922F001024FF0E02337
:1021D0001A6100229A6170471400002000BF054A6E
:1021E000128802F04002002AF9D0C2B2014B1B1D36
:1021F0001A8070470038014094B000BF4FF4A060CF
:10220000FFF7A0FBFFF77CFF4FF4E13000F0D4F8BC
:1022100002E02DA0FEF708F8FFF774F80028F8D1C7
:1022200051E00A2311AA12A913A8FFF7FBF8012312
:10223000DDE911211398FEF7A9FF10900223DDE9D3
:1022400011211398FEF7A2FF0F900023DDE9112161
:102250001398FEF79BFF0E9011AA12A913A800F085
:1022600075F80E9800F022FE04460D460F9800F017
:102270001DFE06460F46109800F018FE804689465F
:10228000119800F013FE82468B46129800F00EFE65
:10229000CDE90C01139800F009FECDE902ABCDE9C0
:1022A0000489CDE90667CDE90845CDE90A01DDE9F4
:1022B0000C01CDE9000107A0DDE90A23FDF7B4FF19
:1022C0006420FFF73FFFACE7696E69745F66616980
:1022D0006C0D0A00783A25662C793A25662C7A3AF4
:1022E00025662C616E67783A25662C616E67793AAF
:1022F00025662C616E677A3A25660D0A000000009B
:102300002DE9F04106460F4600F000FC04000D46A2
:1023100018BF0120284320F00040C0F17F6000F189
:10232000E040C00F0ED0301C18BF0120384320F011
:102330000040C0F17F6000F1E040C00F04BF012009
:10234000FDF7BBFF20462946BDE8F0812DE9F047A7
:1023500004460D4616464FF000081649206800F066
:1023600021FF81464FF0874100F02EFE07461149BC
:1023700000F02AFE20600F49286800F013FF814614
:102380004FF0874100F020FE07460A4900F01CFE8E
:1023900028600849306800F005FF81464FF087410A
:1023A00000F012FE0746034900F00EFE3060BDE863
:1023B000F087000000007A4410B586B00446012181
:1023C00044F20400FFF7CAFA4FF40070ADF81400AD
:1023D00003208DF8160018208DF8170005A91C4859
:1023E000FFF78EF84FF48060ADF8140004208DF8EC
:1023F000170005A91648FFF783F825208DF800007F
:1024000003208DF801008DF8020001208DF80300F3
:102410006846FFF75FFA01940020ADF80800ADF8B8
:102420000A00ADF80C00ADF810000C20ADF80E005D
:1024300001A90848FFF768FC012240F22551054830
:10244000FFF73CFC01210348FFF702FC06B010BD7A
:10245000000801400038014010B500290AD0087872
:10246000002807D005487844FEF794FA002801D0E8
:10247000002010BD0248784410BD00000612000084
:10248000FE11000021F00042A2F16052B2F5801F5F
:1024900001F0004328BFD2F17F6C0BD95FEA001C2A
:1024A00043EAC20242EB507018BF704728BF20F0C9
:1024B00001007047B2F5801FBCBF184670474FEA55
:1024C000410C1CF5001F02D2084600F032BF70B567
:1024D00000F0BCFA00000089FFF7F6BF4FF00040A3
:1024E000A0F580007047000010B591EA030F48BFC7
:1024F00083F0004300F1F883841A71EB030C05D2DA
:10250000121943EB0C03001B61EB0C01DFF824E113
:102510004FEA1154A4EB135C1EEA430F18BF9EEA66
:10252000445F73D023EA0E03DCF1200E21EA04514C
:1025300043F4801332D322FA0CFE10EB0E0023FA80
:102540000CFE41EB0E01CCF1200E03FA0EFE10EB57
:102550000E0051F10001B1F5801FCCF1200E32D2F6
:1025600001EB045112FA0EF2BDE8104058BF70475B
:10257000401C38BF5FEA420218BF7047002814BFF2
:1025800020F0010041F100014FEA410313F5001F63
:1025900038BF7047A1F1C04100F0A6BA012A43EB51
:1025A0000302ACF1200CDCF11F0E32BF4FF0000E25
:1025B00023FA0CF310EB030041EB0451B4EB115F71
:1025C000D0D0A1EB045101F5801149085FEA300039
:1025D00001EB04510ED350F1000038BF12FA0EFE89
:1025E00008D1BDE81040C9E7401C38BF5FEA42028D
:1025F000CAD1C3E7BDE810404FEA410313F5001FFD
:1026000038BF7047A1F1C04100F06EBA9EEA445F46
:1026100008D011EA5E0FBDE8104004BF01F0004190
:1026200000207047BDE8104070B500F00FFA00BF01
:1026300064FBBE3E0000E0FF02494FF0000000F0E6
:10264000F4BE00BF0000F87F2DE9C04130B4DFF8D0
:10265000A0C23CEA111418BF3CEA131400F0EC804D
:1026600081EA03051CEA111444EAD57418BF1CEA78
:10267000131500F0C780A4EB05044FF0004545EAB0
:10268000C12145EAC32341EA505143EA525304F1C0
:102690007F74994204F500344FEAC0204FEAC22209
:1026A00008BF904200F09C804FEA13650FF240167D
:1026B000765D4FEA134506FB05F7C7F1807706FB09
:1026C00007F74FEAD737A7FB03687642C8F580388B
:1026D000A7FB06CE38BFA8F1010807FB08E64FF0BC
:1026E000000EA6FB028CE6FB03CEDCF1000CCEF163
:1026F000004E38BFAEF1010EA6FB0C584FF000079C
:102700004FF00005E6FB0E87A1FB08C6A0FB07CE35
:1027100016EB0E0645F10005E1FB076515F1E04EED
:102720007EBFA4F580345FEA46066D4116F180074E
:1027300045F100054FEA17274FEA066647EA0567A5
:10274000A6F1DE46B6F1805F4FEA15251FD938465F
:1027500024F0010C05EBC471BCF1FE6F01EB0C1110
:1027600002D8F0BCBDE8008124425CBF01F5801EA8
:102770009EEAC47F02D4F0BCBDE80081244238D474
:10278000F0BCA1F1C041BDE8004100F0ADB94FEA95
:10279000D22242EA43524FEAD323A7FB02864FEAF2
:1027A000D02040EA415007FB03661EEA0E0F4FEAB5
:1027B000D12105FB026658BFA6EB0056B6EB0056CA
:1027C0004FEA520E4EEAC37E18EB0E0E56EB530E36
:1027D000BDD518EB02085E417F1C55F10005B6E738
:1027E0004FF480154FF000074FF000064FF000083F
:1027F000ADE7F0BC4FF0000001F1C04101F0004135
:10280000BDE8008111EA0C1F0CEA131500D00CE0A2
:1028100013EA0C1F00F025804FF00000F0BC81EAA5
:10282000030101F00041BDE80081F0BCBDE80041BA
:1028300081EA030100F058B9F0BCBDE8004170B571
:1028400000F004F9097EFC3E00F007B881EA0301BC
:102850004FF0000001F00041704781EA030100F0F1
:1028600043B9F0BCBDE800414FF00000214970477A
:10287000FFFDFBF9F7F5F4F2F0EEEDEBE9E8E6E445
:10288000E3E1E0DEDDDBDAD8D7D5D4D3D1D0CFCDCC
:10289000CCCBCAC8C7C6C5C4C2C1C0BFBEBDBCBB05
:1028A000BAB9B8B7B6B5B4B3B2B1B0AFAEADACAB00
:1028B000AAA9A8A8A7A6A5A4A3A3A2A1A09F9F9EDA
:1028C0009D9C9C9B9A99999897979695959493938C
:1028D000929191908F8F8E8E8D8C8C8B8B8A898923
:1028E00088888787868585848483838282818180A6
:1028F0000000FF070000F87FDFF848C170B51CEA50
:10290000111E1EBF1CEA13159EEA0C0F95EA0C0F50
:1029100000F06F8081EA030423EA4C134EEAD47E70
:1029200021EA4C1141F4801143F48013AE44A1FB21
:10293000024CA0FB0365AEF17F7E361955EB0C050A
:10294000A1FB034C4CF10003A0FB021C16EB0C0690
:10295000654153F10003094218BF46F0010613F424
:10296000007F0BD14FEA03314FEA0530340341EACF
:10297000155140EA16506FF003020AE04FEAC321F6
:102980004FEAC520F40241EA555140EA56506FF033
:10299000020202EB2E4201EB025585EACE710AD00B
:1029A0005FEA440C18BF24F0004450F1000041F1EC
:1029B000000120EAD47040F2FE7C624500D270BD76
:1029C000A84214BF4FF080444FF04044002E08BF8F
:1029D0000024BEF1806FA8BFA1F1C041BDE87040E6
:1029E00080F282804FF0000001F1C04101F000410F
:1029F00070479EEA0C0F0CEA131518BF95EA0C0FEE
:102A000006D04FF0000081EA030E0EF0004170BDC9
:102A100000F01CF88900013E00F007B800F009B88A
:102A20004FEA430C5FEA5C5C08D081EA030100F0E6
:102A30005BB84FEA410C5FEA5C5CF6D14FF00000F6
:102A4000014970470000FF070000F87F0EF1020EF9
:102A50002EF0030E5EF8046B364205D4012A43EBD8
:102A6000030515F5001F12D8012841EB010C1CF5D8
:102A7000001F0CD80ED14FEAD17C15F5001F0CEBCE
:102A80004C0C0CF1020C08BF4CEBD37C04E04FF073
:102A9000080C01E04FEAD37C0CEB4C0526FA05F656
:102AA00006F00706B6F1040C06D20EEB860CBDE864
:102AB00070404CF0010C6047DFE80CF0090B02029B
:102AC0004FF000414FF00000A1F5002170BD194604
:102AD0001046012851EB010418BFD4F5001484BF3F
:102AE000002001F0004170BD0808A0F500114FEA78
:102AF0003101704791EA030F10B581F000413FF5B5
:102B0000FBAC83F0004300F0EFB800002DE9F0418A
:102B100001F5801CBCF5001FC0F2C3804FEA115CB8
:102B200021EA0C510CF1FD0C41F480115FEA5C0CC0
:102B30000CF5C07C01D3400049413DA4890241EA23
:102B4000905187028E0E0A0CA45D04FB04F602FB72
:102B500006F6C6F14046A4FB0662F60D46EA42269A
:102B600006FB06F4A4FB01235242C3F1404338BFE5
:102B70005B1EA6FB02420024E6FB0324D20B42EAC2
:102B80004446A6FB0623A1FB02E2A3FB07E4A4182C
:102B90004FF0000252F10002E3FB01426442C2F135
:102BA000404E38BFAEF1010EA6FB04234FF00002E9
:102BB000E6FB0E32A2FB03464FF00004B61954F1B7
:102BC0000004E2FB0264A1FB06E6A4FB07E816EBA7
:102BD00008064FF0000858F10008E4FB016876424F
:102BE000C8F1405838BFA8F10108A2FB06E4A3FBD6
:102BF00008E52D194FF0000454F10004E2FB0854DD
:102C0000A1FB05E6A7FB04E818EB06084FF0000659
:102C100056F10006E1FB048618F1200556F1000686
:102C2000A809A8F11B08B10908F03F08B8F10A0F7C
:102C300040EA86601CD901EB0C51BDE8F08100BF71
:102C4000FCF5EEE8E2DDD8D3CFCBC7C3C0BDB9B643
:102C5000B4B1AEACA9A7A5A3A19F9D9B9A98969548
:102C60009392908F8D8C8B898887868584838281CF
:102C7000A0FB006800FB01F208EB4208B8EB8728D4
:102C800007D5341858EB0104D5D5401C51F100018B
:102C9000D1E7341A78EB0104CDD4401E71F1000164
:102CA000C9E75FEA4C0C5FEA9C5C0DD105D34FF09D
:102CB000000001F00041BDE8F081BDE8F04170B5D1
:102CC000FFF7C4FE6DDBFFBEBDE8F0414FF0000032
:102CD000004970470000F87F10B591EA030F48BF24
:102CE00083F000433FF508AC841A71EB030C07D264
:102CF00012198CF0004C43EB0C03001B61EB0C0130
:102D0000DFF8A4E14FEA1154A4EB135C1EEA430F71
:102D100018BF9EEA445F00F0B08023EA6E0352427F
:102D200021EA0451C3EB6E0338BF5B1EDCF1200EB9
:102D300025D322FA0CFE10EB0E0043FA0CFE41EBF9
:102D40000E01CCF1200E03FA0EFE10EB0E0051F135
:102D50000001CCF1200E29D412FA0EF201EB04513D
:102D6000BDE8104058BF7047401C1CBFB2F1004F77
:102D7000704700280CBF491C20F00100704712EB7F
:102D8000020E43EB030218BF4FF0010E4EEA42025F
:102D9000ACF1200CDCF11E0E54D943FA0CFE10EB02
:102DA0000E0051F1FF31CCF11E0ED5D50EF1010E02
:102DB00012FA0EFE404141EB010101EB445C5FEA77
:102DC0005C5C10D910EBDE7001EB045138BFBEF132
:102DD000004FBDE8104018BF704700280CBF491CC9
:102DE00020F00100704730D24FEAD42C11F50011C9
:102DF00024F400641BD0B1FA81F20B3AA41AA41E89
:102E0000D2F12003914030FA03F31943904001EBD3
:102E1000CC71002C01EB0451BDE81040A8BF7047F5
:102E200001F1C0414FF0000001F000417047B0FADD
:102E300080F310FA03F100D110BDE41A173C4805E5
:102E4000C90AE4E701EB045110BD491001EB04513C
:102E5000BDE810404FEA300002E04FF0000170473B
:102E60004A0008BF0042F8D0B2F5001F28BF7047E3
:102E700001F000414FF0000070479EEA445F07D028
:102E800011EA5E0FBDE8104004BF0021002070472A
:102E9000BDE8104070B5FFF7D9FD00BF40DFF63E3A
:102EA00083F00041104670470000E0FF43004FEA06
:102EB000D30C4FEA3C0C43401FBF40070CF160515C
:102EC00013F0FE4F70471CF0006F03D100200CF090
:102ED000004170470CF0004343EA507010B540EADF
:102EE000CC0000F0E0F900BF000000924FEA0001C2
:102EF000FFF7FABD4FF000414FF00000A1F50021AF
:102F00007047000090EA010F48BF81F0004100F1D6
:102F10001C82421A3CBF801A89184FEAD0524FF0E7
:102F20007F4C1CEA410FA2EBD15318BF9CEA026F01
:102F300000F03B804FF0004C4CEA00204CEA0121AD
:102F400021FA03FC10EB0C0C1ED202F1FF325FEAF7
:102F50001C2040EBC25038BF70471CF07F0F4FEA77
:102F6000400C18BFBCF17F4F38BF7047C3F120033E
:102F7000994008BF20F00100BCF17F4F38BF704777
:102F8000A0F1C04000F0D5B94FEA3C00000A40EB88
:102F9000C25028BF1CF0FF0F4FEA400CE6D018BF0C
:102FA000BCF17F4F38BF7047EAE79CEA026F05D05B
:102FB00010EA5C0F08BF00F00040704710B500F049
:102FC00072F900BF64FBBE3E4FF47F0C1CEAD012C6
:102FD0001EBF1CEAD11392EA0C0F93EA0C0F00F00B
:102FE000858090EA010F48BF42F4807240F4000CE3
:102FF00041F400002CF07F4120F07F4000B5814279
:10300000A2EB03020FF2081CACEB504EC0F1000023
:103010009EF800E04FEA4E0E00FB0EFC38BF490060
:103020004FEA2C1C02F5FA020CFB0EF34FEACE1EFF
:103030004FEA112C4FEAC1210EEB635E42EB2242B4
:103040000EFB0CFC4FEA1C5300FB03114FEA112C42
:103050004FEA01310EFB0CFC4FEADC4C00FB0C117B
:10306000C14228BF09184CEB03335DF804EB10EBA9
:10307000410143EBC250B2F57C0F38BF704729D5F0
:1030800012F0F00F1CBF00F1C04000F0004070478C
:10309000008182838485868788898B8C8D8E8F9131
:1030A0009293959697999A9C9D9FA0A2A3A5A7A855
:1030B000AAACAEB0B2B3B5B7B9BCBEC0C2C5C7C981
:1030C000CCCED1D4D7D9DCDFE2E6E9ECF0F3F7FAE5
:1030D000FE0000004FEA400C0CF1807CBCF17E4FFA
:1030E00028BF7047B0F1C04000F023B990EA010F4B
:1030F0000CEAD11348BF42F48072624538BF634581
:1031000007D213F47F0F16D080EA010000F00040D0
:10311000704710B500F0C7F8097EFC3E00F005B816
:1031200080EA010000F00040704780EA010000F0F2
:10313000004000F0FEB812F47F0F04BF0248704751
:1031400080EA010000F0F5B80000C07F10F00041F7
:1031500048BF4042B0FA80F310FA03F2C3F19D0376
:103160000BD051EAC35101EB1220530638BF704710
:1031700000F1010008BF20F001007047B0FA80F3B1
:1031800010FA03F2C3F19D030AD0D90501EB122016
:10319000530638BF704700F1010008BF20F001005E
:1031A000704700004FF47F0C1CEAD0121EBF1CEACF
:1031B000D11392EA0C0F93EA0C0F00F0478090EACB
:1031C000010F48BF42F480724FF0004C4CEA0020DF
:1031D0004CEA012102EB0302A0FB0113A2F500025D
:1031E000002918BF43F001035B0028BF4FEA3303F7
:1031F00042EB22425FEA132C4CEBC2502EBFBCEBD9
:10320000436FB2F57C0F70474FEA036CBCF1004F7F
:1032100008BF20F00100B2F57C0F38BF70470BD516
:1032200082F0FF0212F5803FC8BF704700F1C04036
:10323000D8BF00F00040704700F5000C5FEA4C0C6E
:1032400048BF7047B0F1C04000F073B890EA010F7A
:103250000CEAD11348BF42F48072624538BF63451F
:1032600004D280EA010000F00040704710B500F081
:103270001AF800BF8900013E00F007B800F009B855
:103280005FEA410C5FEA1C6C08D080EA010000F0A4
:1032900050B85FEA400C5FEA1C6CF6D14FF000407A
:1032A000A0F5800070470EF1020E2EF0030E5EF8BE
:1032B000044B244204D44FEA4102B2F17F4F11D8AB
:1032C0004FEA4003B3F17F4F0CD80ED14FEAD07CC8
:1032D000B2F17F4F0CEB4C0C0CF1020C08BF4CEB25
:1032E000D17C04E04FF0080C01E04FEAD17C0CEBFC
:1032F0004C0324FA03F404F00704B4F1040C06D2DE
:103300000EEB840CBDE810404CF0010C6047DFE888
:103310000CF0070802024FF00040A0F5800010BD3D
:103320000846420018BFD2F1807288BF00F000400A
:1033300010BDFF2141EAD050C005704790EA010F4F
:1033400048BF81F000413FF5E4AD421A04D882F055
:103350000042A0EB020011444FEAD0524FF07F4CE4
:103360001CEA410FA2EBD15318BF9CEA026F4AD06E
:103370004FF0004C4CEA00204CEA012121FA03FCFA
:10338000B0EB0C0C0FD412F0FE0F36D05FEA4C00FD
:103390001DD5001240EBC25038BF70471CF03F0FE4
:1033A00018BF70470BE0A2F101025FEA1C2040EB5E
:1033B000C25038BF70471CF07F0F18BF7047C3F171
:1033C0002003994014BF401E20F001007047800880
:1033D0004FEA122308BF7047B0FA80FCA2EB0C0240
:1033E000CCF1280C60FA0CF093EA122F04BF00EB2A
:1033F000C25070474FEAC3707047130A5FEADC108F
:1034000008BF7047F6E79CEA026F04D010EA5C0F31
:1034100008BF0020704710B5FFF745FF40DFF63EBC
:1034200081F000407047FDF725B80CF00F03092B21
:1034300008BF082000F059800A2B0BD0082B18BFBA
:10344000704708BF1CF0400F0AD04FF000004FF04B
:10345000000170471CF0400F18BF4FF0004070474C
:103460001CF0100F08D020F0704300F07F4242EAB9
:10347000D3014FEA4370704700F0604021F07F4273
:1034800042EA000201F07F4040EA727070474FF05C
:10349000FF0C4CF4E06C1CEA11531CBF9CEA030CBB
:1034A0009445C2BFDA4201EB02517047002B0DD0A8
:1034B000BCF1000F0FD0002A01F00041A4BF41F081
:1034C000E04141F07F614FF00000704701F00041A2
:1034D0004FF00000704750EA01334FF09B0C18BFCB
:1034E0004CF0806C7FF4A8A870471CF4801F11D0AA
:1034F0001CF4E02F03D06FEACC31490070474FF045
:103500004050EFF3008222F0704242EA000282F360
:10351000008870474FF00000704700000000000076
:103520004FBB610567ACDD3F182D4454FB21E93FDB
:103530009BF681D20B73EF3F182D4454FB21F93FCA
:10354000E2652F227F2B7A3C075C143326A6813C50
:10355000BDCBF07A8807703C075C143326A6913CFB
:10356000C4EB98999999C9BF711623FEC671BCBF67
:103570006D9A74AFF2B0B3BF9AFDDE522DDEADBFCF
:103580002F6C6A2C44B4A2BF0D5555555555D53FE7
:10359000FF8300922449C23F6E204CC5CD45B73F02
:1035A000513DD0A0660DB13FEB0D76244B7BA93F7A
:1035B00011DA22E33AAD903F02400000000000A083
:1035C0000000000005400000000000C800000000EE
:1035D0000C4000000000409C00000000194000006A
:1035E0000020BCBE0000000034400000BFC91B8E9C
:1035F00000000004B5400000504BCFD06607E2CF7A
:10360000010000006C4100003E8251AADFEEA734A9
:1036100001000000D9420000DCB5A0E23A301F975B
:10362000FFFFFFFFB4450000FD25A0C8E9A3C14F7F
:10363000FFFFFFFFFF3F00000000008000000000D0
:10364000FF3F0000000000800000000088360008F6
:1036500000000020340000006C010008BC360008A7
:10366000340000202C070000880100081C00000026
:1036700043000000F8FFFFFF0C0000000E000000F8
:103680000F0000002E00000000A24A04000000000D
:103690000000000001020304060708090000000002
:1036A000000000000000000000000102030401020D
:0C36B000030406070809020406080000D5
:04000005080001E509
:00000001FF
